{
  "contractName": "BankCore",
  "abi": [
    {
      "constant": false,
      "inputs": [
        {
          "name": "_conadd",
          "type": "address"
        },
        {
          "name": "_amount",
          "type": "uint256"
        }
      ],
      "name": "bankConfirm",
      "outputs": [],
      "payable": false,
      "stateMutability": "nonpayable",
      "type": "function"
    },
    {
      "constant": true,
      "inputs": [],
      "name": "cfoAddress",
      "outputs": [
        {
          "name": "",
          "type": "address"
        }
      ],
      "payable": false,
      "stateMutability": "view",
      "type": "function"
    },
    {
      "constant": true,
      "inputs": [],
      "name": "ceoAddress",
      "outputs": [
        {
          "name": "",
          "type": "address"
        }
      ],
      "payable": false,
      "stateMutability": "view",
      "type": "function"
    },
    {
      "constant": true,
      "inputs": [],
      "name": "getFreeTime",
      "outputs": [
        {
          "name": "_start",
          "type": "uint64"
        },
        {
          "name": "_end",
          "type": "uint64"
        }
      ],
      "payable": false,
      "stateMutability": "view",
      "type": "function"
    },
    {
      "constant": false,
      "inputs": [
        {
          "name": "_conadd",
          "type": "address"
        },
        {
          "name": "_diary",
          "type": "bytes"
        }
      ],
      "name": "sendDiary",
      "outputs": [],
      "payable": false,
      "stateMutability": "nonpayable",
      "type": "function"
    },
    {
      "constant": false,
      "inputs": [
        {
          "name": "_newCEO",
          "type": "address"
        }
      ],
      "name": "setCEO",
      "outputs": [],
      "payable": false,
      "stateMutability": "nonpayable",
      "type": "function"
    },
    {
      "constant": false,
      "inputs": [
        {
          "name": "_newCOO",
          "type": "address"
        }
      ],
      "name": "setCOO",
      "outputs": [],
      "payable": false,
      "stateMutability": "nonpayable",
      "type": "function"
    },
    {
      "constant": false,
      "inputs": [],
      "name": "unpause",
      "outputs": [],
      "payable": false,
      "stateMutability": "nonpayable",
      "type": "function"
    },
    {
      "constant": false,
      "inputs": [
        {
          "name": "_newCFO",
          "type": "address"
        }
      ],
      "name": "setCFO",
      "outputs": [],
      "payable": false,
      "stateMutability": "nonpayable",
      "type": "function"
    },
    {
      "constant": false,
      "inputs": [
        {
          "name": "_conadd",
          "type": "address"
        },
        {
          "name": "_amount",
          "type": "uint256"
        }
      ],
      "name": "bankWithdraw",
      "outputs": [],
      "payable": false,
      "stateMutability": "nonpayable",
      "type": "function"
    },
    {
      "constant": true,
      "inputs": [],
      "name": "paused",
      "outputs": [
        {
          "name": "",
          "type": "bool"
        }
      ],
      "payable": false,
      "stateMutability": "view",
      "type": "function"
    },
    {
      "constant": false,
      "inputs": [],
      "name": "withdrawBalance",
      "outputs": [],
      "payable": false,
      "stateMutability": "nonpayable",
      "type": "function"
    },
    {
      "constant": true,
      "inputs": [
        {
          "name": "_add1",
          "type": "address"
        },
        {
          "name": "_add2",
          "type": "address"
        }
      ],
      "name": "getContract",
      "outputs": [
        {
          "name": "",
          "type": "address"
        }
      ],
      "payable": false,
      "stateMutability": "view",
      "type": "function"
    },
    {
      "constant": false,
      "inputs": [
        {
          "name": "name1",
          "type": "bytes32"
        },
        {
          "name": "name2",
          "type": "bytes32"
        },
        {
          "name": "address1",
          "type": "address"
        },
        {
          "name": "address2",
          "type": "address"
        }
      ],
      "name": "createAccount",
      "outputs": [],
      "payable": true,
      "stateMutability": "payable",
      "type": "function"
    },
    {
      "constant": true,
      "inputs": [],
      "name": "newContractAddress",
      "outputs": [
        {
          "name": "",
          "type": "address"
        }
      ],
      "payable": false,
      "stateMutability": "view",
      "type": "function"
    },
    {
      "constant": false,
      "inputs": [
        {
          "name": "_conadd",
          "type": "address"
        }
      ],
      "name": "sendBreakup",
      "outputs": [],
      "payable": false,
      "stateMutability": "nonpayable",
      "type": "function"
    },
    {
      "constant": false,
      "inputs": [
        {
          "name": "_v2Address",
          "type": "address"
        }
      ],
      "name": "setNewAddress",
      "outputs": [],
      "payable": false,
      "stateMutability": "nonpayable",
      "type": "function"
    },
    {
      "constant": false,
      "inputs": [
        {
          "name": "_newlimit",
          "type": "uint256"
        }
      ],
      "name": "setConfirm",
      "outputs": [],
      "payable": false,
      "stateMutability": "nonpayable",
      "type": "function"
    },
    {
      "constant": true,
      "inputs": [
        {
          "name": "",
          "type": "bytes16"
        }
      ],
      "name": "sig_to_add",
      "outputs": [
        {
          "name": "",
          "type": "address"
        }
      ],
      "payable": false,
      "stateMutability": "view",
      "type": "function"
    },
    {
      "constant": false,
      "inputs": [],
      "name": "pause",
      "outputs": [],
      "payable": false,
      "stateMutability": "nonpayable",
      "type": "function"
    },
    {
      "constant": false,
      "inputs": [
        {
          "name": "_conadd",
          "type": "address"
        },
        {
          "name": "_time",
          "type": "uint256"
        },
        {
          "name": "_choice",
          "type": "uint256"
        }
      ],
      "name": "sendMileStone",
      "outputs": [],
      "payable": true,
      "stateMutability": "payable",
      "type": "function"
    },
    {
      "constant": true,
      "inputs": [],
      "name": "CONFIRM_LIMIT",
      "outputs": [
        {
          "name": "",
          "type": "uint32"
        }
      ],
      "payable": false,
      "stateMutability": "view",
      "type": "function"
    },
    {
      "constant": false,
      "inputs": [
        {
          "name": "_withdrawFee",
          "type": "uint256"
        },
        {
          "name": "_breakupFee",
          "type": "uint256"
        },
        {
          "name": "_stone",
          "type": "uint256"
        },
        {
          "name": "_open",
          "type": "uint256"
        }
      ],
      "name": "setFee",
      "outputs": [],
      "payable": false,
      "stateMutability": "nonpayable",
      "type": "function"
    },
    {
      "constant": true,
      "inputs": [],
      "name": "cooAddress",
      "outputs": [
        {
          "name": "",
          "type": "address"
        }
      ],
      "payable": false,
      "stateMutability": "view",
      "type": "function"
    },
    {
      "constant": true,
      "inputs": [],
      "name": "getFee",
      "outputs": [
        {
          "name": "_withdrawFee",
          "type": "uint64"
        },
        {
          "name": "_breakupFee",
          "type": "uint64"
        },
        {
          "name": "_stone",
          "type": "uint256"
        },
        {
          "name": "_open",
          "type": "uint256"
        }
      ],
      "payable": false,
      "stateMutability": "view",
      "type": "function"
    },
    {
      "constant": false,
      "inputs": [],
      "name": "receiveFee",
      "outputs": [],
      "payable": true,
      "stateMutability": "payable",
      "type": "function"
    },
    {
      "constant": true,
      "inputs": [],
      "name": "next_id",
      "outputs": [
        {
          "name": "",
          "type": "uint64"
        }
      ],
      "payable": false,
      "stateMutability": "view",
      "type": "function"
    },
    {
      "constant": false,
      "inputs": [
        {
          "name": "_start",
          "type": "uint256"
        },
        {
          "name": "_end",
          "type": "uint256"
        }
      ],
      "name": "setFreeTime",
      "outputs": [],
      "payable": false,
      "stateMutability": "nonpayable",
      "type": "function"
    },
    {
      "constant": true,
      "inputs": [
        {
          "name": "",
          "type": "address"
        }
      ],
      "name": "pendingList",
      "outputs": [
        {
          "name": "pending",
          "type": "bool"
        },
        {
          "name": "withdrawer",
          "type": "address"
        },
        {
          "name": "amount",
          "type": "uint256"
        },
        {
          "name": "fee",
          "type": "uint256"
        },
        {
          "name": "endTime",
          "type": "uint64"
        }
      ],
      "payable": false,
      "stateMutability": "view",
      "type": "function"
    },
    {
      "constant": false,
      "inputs": [
        {
          "name": "_conadd",
          "type": "address"
        },
        {
          "name": "newBank",
          "type": "address"
        }
      ],
      "name": "changeBank",
      "outputs": [],
      "payable": false,
      "stateMutability": "nonpayable",
      "type": "function"
    },
    {
      "inputs": [],
      "payable": false,
      "stateMutability": "nonpayable",
      "type": "constructor"
    },
    {
      "payable": true,
      "stateMutability": "payable",
      "type": "fallback"
    },
    {
      "anonymous": false,
      "inputs": [
        {
          "indexed": false,
          "name": "_sender",
          "type": "address"
        },
        {
          "indexed": false,
          "name": "_value",
          "type": "uint256"
        }
      ],
      "name": "DepositBank",
      "type": "event"
    },
    {
      "anonymous": false,
      "inputs": [
        {
          "indexed": false,
          "name": "_name1",
          "type": "bytes32"
        },
        {
          "indexed": false,
          "name": "_name2",
          "type": "bytes32"
        },
        {
          "indexed": false,
          "name": "_conadd",
          "type": "address"
        },
        {
          "indexed": false,
          "name": "_address1",
          "type": "address"
        },
        {
          "indexed": false,
          "name": "_address2",
          "type": "address"
        },
        {
          "indexed": false,
          "name": "_loveID",
          "type": "uint64"
        }
      ],
      "name": "Create",
      "type": "event"
    },
    {
      "anonymous": false,
      "inputs": [
        {
          "indexed": false,
          "name": "_time",
          "type": "uint256"
        }
      ],
      "name": "Breakup",
      "type": "event"
    },
    {
      "anonymous": false,
      "inputs": [
        {
          "indexed": false,
          "name": "_time",
          "type": "uint256"
        },
        {
          "indexed": false,
          "name": "_choice",
          "type": "uint256"
        }
      ],
      "name": "StoneLog",
      "type": "event"
    },
    {
      "anonymous": false,
      "inputs": [
        {
          "indexed": false,
          "name": "_time",
          "type": "uint256"
        },
        {
          "indexed": false,
          "name": "_contant",
          "type": "bytes"
        }
      ],
      "name": "DiaryLog",
      "type": "event"
    },
    {
      "anonymous": false,
      "inputs": [
        {
          "indexed": false,
          "name": "_amount",
          "type": "uint256"
        },
        {
          "indexed": false,
          "name": "_endTime",
          "type": "uint256"
        }
      ],
      "name": "Withdraw",
      "type": "event"
    },
    {
      "anonymous": false,
      "inputs": [
        {
          "indexed": false,
          "name": "_amount",
          "type": "uint256"
        },
        {
          "indexed": false,
          "name": "_confirmTime",
          "type": "uint256"
        }
      ],
      "name": "WithdrawConfirm",
      "type": "event"
    },
    {
      "anonymous": false,
      "inputs": [
        {
          "indexed": false,
          "name": "newVerseContract",
          "type": "address"
        }
      ],
      "name": "ContractUpgrade",
      "type": "event"
    }
  ],
  "bytecode": "0x60606040526000600260146101000a81548160ff021916908315150217905550660e35fa931a000060035566470de4df8200006004556000600560006101000a81548167ffffffffffffffff021916908367ffffffffffffffff1602179055506000600560086101000a81548167ffffffffffffffff021916908367ffffffffffffffff1602179055506064600560106101000a81548167ffffffffffffffff021916908367ffffffffffffffff1602179055506032600560186101000a81548167ffffffffffffffff021916908367ffffffffffffffff160217905550610384600660006101000a81548163ffffffff021916908363ffffffff1602179055506000600660046101000a81548167ffffffffffffffff021916908367ffffffffffffffff160217905550341561013557600080fd5b6001600260146101000a81548160ff021916908315150217905550336000806101000a81548173ffffffffffffffffffffffffffffffffffffffff021916908373ffffffffffffffffffffffffffffffffffffffff16021790555033600260006101000a81548173ffffffffffffffffffffffffffffffffffffffff021916908373ffffffffffffffffffffffffffffffffffffffff16021790555033600160006101000a81548173ffffffffffffffffffffffffffffffffffffffff021916908373ffffffffffffffffffffffffffffffffffffffff16021790555061470f806102216000396000f30060606040526004361061017f576000357c0100000000000000000000000000000000000000000000000000000000900463ffffffff16806293703c146103065780630519ce79146103485780630a0f81681461039d57806311737d7b146103f2578063180a32771461044a57806327d7874c146104975780632ba73c15146104d05780633f4ba83a146105095780634e0a33791461051e578063531ce262146105575780635c975abb146105995780635fd8c710146105c657806368bd6efa146105db5780636a8f91ff146106735780636af04a57146106da5780636b1c86fe1461072f57806371587988146107685780637fcdd1f0146107a1578063801145bd146107c45780638456cb591461083a57806389c44def1461084f5780639e3b94f11461088f578063a2a957bb146108c4578063b047fb5014610902578063ced72f8714610957578063e18b7fcf146109bd578063e31bfa00146109c7578063e9fb078e14610a04578063f18ab54414610a30578063f193a3f714610add575b600260009054906101000a900473ffffffffffffffffffffffffffffffffffffffff1673ffffffffffffffffffffffffffffffffffffffff163373ffffffffffffffffffffffffffffffffffffffff16148061022757506000809054906101000a900473ffffffffffffffffffffffffffffffffffffffff1673ffffffffffffffffffffffffffffffffffffffff163373ffffffffffffffffffffffffffffffffffffffff16145b8061027f5750600160009054906101000a900473ffffffffffffffffffffffffffffffffffffffff1673ffffffffffffffffffffffffffffffffffffffff163373ffffffffffffffffffffffffffffffffffffffff16145b151561028a57600080fd5b60003411151561029957600080fd5b7fd1baceac3b8e46bb2f548d35306ed2bfa2d01889bb1e819d88c34e93edef805c3334604051808373ffffffffffffffffffffffffffffffffffffffff1673ffffffffffffffffffffffffffffffffffffffff1681526020018281526020019250505060405180910390a1005b341561031157600080fd5b610346600480803573ffffffffffffffffffffffffffffffffffffffff16906020019091908035906020019091905050610b35565b005b341561035357600080fd5b61035b610eb9565b604051808273ffffffffffffffffffffffffffffffffffffffff1673ffffffffffffffffffffffffffffffffffffffff16815260200191505060405180910390f35b34156103a857600080fd5b6103b0610edf565b604051808273ffffffffffffffffffffffffffffffffffffffff1673ffffffffffffffffffffffffffffffffffffffff16815260200191505060405180910390f35b34156103fd57600080fd5b610405610f04565b604051808367ffffffffffffffff1667ffffffffffffffff1681526020018267ffffffffffffffff1667ffffffffffffffff1681526020019250505060405180910390f35b341561045557600080fd5b610495600480803573ffffffffffffffffffffffffffffffffffffffff169060200190919080359060200190820180359060200191909192905050611048565b005b34156104a257600080fd5b6104ce600480803573ffffffffffffffffffffffffffffffffffffffff16906020019091905050611192565b005b34156104db57600080fd5b610507600480803573ffffffffffffffffffffffffffffffffffffffff1690602001909190505061126c565b005b341561051457600080fd5b61051c611347565b005b341561052957600080fd5b610555600480803573ffffffffffffffffffffffffffffffffffffffff16906020019091905050611424565b005b341561056257600080fd5b610597600480803573ffffffffffffffffffffffffffffffffffffffff169060200190919080359060200190919050506114ff565b005b34156105a457600080fd5b6105ac6118a1565b604051808215151515815260200191505060405180910390f35b34156105d157600080fd5b6105d96118b4565b005b34156105e657600080fd5b610631600480803573ffffffffffffffffffffffffffffffffffffffff1690602001909190803573ffffffffffffffffffffffffffffffffffffffff169060200190919050506119ac565b604051808273ffffffffffffffffffffffffffffffffffffffff1673ffffffffffffffffffffffffffffffffffffffff16815260200191505060405180910390f35b6106d86004808035600019169060200190919080356000191690602001909190803573ffffffffffffffffffffffffffffffffffffffff1690602001909190803573ffffffffffffffffffffffffffffffffffffffff16906020019091905050611ab7565b005b34156106e557600080fd5b6106ed612034565b604051808273ffffffffffffffffffffffffffffffffffffffff1673ffffffffffffffffffffffffffffffffffffffff16815260200191505060405180910390f35b341561073a57600080fd5b610766600480803573ffffffffffffffffffffffffffffffffffffffff1690602001909190505061205a565b005b341561077357600080fd5b61079f600480803573ffffffffffffffffffffffffffffffffffffffff1690602001909190505061227b565b005b34156107ac57600080fd5b6107c26004808035906020019091905050612398565b005b34156107cf57600080fd5b6107f860048080356fffffffffffffffffffffffffffffffff1916906020019091905050612417565b604051808273ffffffffffffffffffffffffffffffffffffffff1673ffffffffffffffffffffffffffffffffffffffff16815260200191505060405180910390f35b341561084557600080fd5b61084d61244a565b005b61088d600480803573ffffffffffffffffffffffffffffffffffffffff1690602001909190803590602001909190803590602001909190505061258e565b005b341561089a57600080fd5b6108a2612702565b604051808263ffffffff1663ffffffff16815260200191505060405180910390f35b34156108cf57600080fd5b6109006004808035906020019091908035906020019091908035906020019091908035906020019091905050612718565b005b341561090d57600080fd5b6109156127f9565b604051808273ffffffffffffffffffffffffffffffffffffffff1673ffffffffffffffffffffffffffffffffffffffff16815260200191505060405180910390f35b341561096257600080fd5b61096a61281f565b604051808567ffffffffffffffff1667ffffffffffffffff1681526020018467ffffffffffffffff1667ffffffffffffffff16815260200183815260200182815260200194505050505060405180910390f35b6109c5612972565b005b34156109d257600080fd5b6109da612974565b604051808267ffffffffffffffff1667ffffffffffffffff16815260200191505060405180910390f35b3415610a0f57600080fd5b610a2e600480803590602001909190803590602001909190505061298e565b005b3415610a3b57600080fd5b610a67600480803573ffffffffffffffffffffffffffffffffffffffff16906020019091905050612a64565b60405180861515151581526020018573ffffffffffffffffffffffffffffffffffffffff1673ffffffffffffffffffffffffffffffffffffffff1681526020018481526020018381526020018267ffffffffffffffff1667ffffffffffffffff1681526020019550505050505060405180910390f35b3415610ae857600080fd5b610b33600480803573ffffffffffffffffffffffffffffffffffffffff1690602001909190803573ffffffffffffffffffffffffffffffffffffffff16906020019091905050612adb565b005b6000600260149054906101000a900460ff16151515610b5357600080fd5b8190508181141515610b6457600080fd5b600860008473ffffffffffffffffffffffffffffffffffffffff1673ffffffffffffffffffffffffffffffffffffffff16815260200190815260200160002060000160009054906101000a900460ff168015610c1f5750600860008473ffffffffffffffffffffffffffffffffffffffff1673ffffffffffffffffffffffffffffffffffffffff16815260200190815260200160002060030160009054906101000a900467ffffffffffffffff1667ffffffffffffffff1642105b1515610c2a57600080fd5b3373ffffffffffffffffffffffffffffffffffffffff16600860008573ffffffffffffffffffffffffffffffffffffffff1673ffffffffffffffffffffffffffffffffffffffff16815260200190815260200160002060000160019054906101000a900473ffffffffffffffffffffffffffffffffffffffff1673ffffffffffffffffffffffffffffffffffffffff1614151515610cc757600080fd5b81600860008573ffffffffffffffffffffffffffffffffffffffff1673ffffffffffffffffffffffffffffffffffffffff16815260200190815260200160002060010154141515610d1757600080fd5b8273ffffffffffffffffffffffffffffffffffffffff16633716443383336040518363ffffffff167c0100000000000000000000000000000000000000000000000000000000028152600401808381526020018273ffffffffffffffffffffffffffffffffffffffff1673ffffffffffffffffffffffffffffffffffffffff16815260200192505050600060405180830381600087803b1515610db957600080fd5b6102c65a03f11515610dca57600080fd5b505050600860008473ffffffffffffffffffffffffffffffffffffffff1673ffffffffffffffffffffffffffffffffffffffff168152602001908152602001600020600080820160006101000a81549060ff02191690556000820160016101000a81549073ffffffffffffffffffffffffffffffffffffffff0219169055600182016000905560028201600090556003820160006101000a81549067ffffffffffffffff021916905550507fa56c5be1c2671203826028eacce37093094e0a7e21b1e99b730c0a45e60219d18242604051808381526020018281526020019250505060405180910390a1505050565b600160009054906101000a900473ffffffffffffffffffffffffffffffffffffffff1681565b6000809054906101000a900473ffffffffffffffffffffffffffffffffffffffff1681565b600080600260009054906101000a900473ffffffffffffffffffffffffffffffffffffffff1673ffffffffffffffffffffffffffffffffffffffff163373ffffffffffffffffffffffffffffffffffffffff161480610faf57506000809054906101000a900473ffffffffffffffffffffffffffffffffffffffff1673ffffffffffffffffffffffffffffffffffffffff163373ffffffffffffffffffffffffffffffffffffffff16145b806110075750600160009054906101000a900473ffffffffffffffffffffffffffffffffffffffff1673ffffffffffffffffffffffffffffffffffffffff163373ffffffffffffffffffffffffffffffffffffffff16145b151561101257600080fd5b600560009054906101000a900467ffffffffffffffff169150600560089054906101000a900467ffffffffffffffff1690509091565b600260149054906101000a900460ff1615151561106457600080fd5b8273ffffffffffffffffffffffffffffffffffffffff1663e9b180843384846040518463ffffffff167c0100000000000000000000000000000000000000000000000000000000028152600401808473ffffffffffffffffffffffffffffffffffffffff1673ffffffffffffffffffffffffffffffffffffffff1681526020018060200182810382528484828181526020019250808284378201915050945050505050600060405180830381600087803b151561112057600080fd5b6102c65a03f1151561113157600080fd5b5050507f63655ebbc73b06ba0e669230f0603029211925b7133d7c80284378d8b43918cd42838360405180848152602001806020018281038252848482818152602001925080828437820191505094505050505060405180910390a1505050565b6000809054906101000a900473ffffffffffffffffffffffffffffffffffffffff1673ffffffffffffffffffffffffffffffffffffffff163373ffffffffffffffffffffffffffffffffffffffff161415156111ed57600080fd5b600073ffffffffffffffffffffffffffffffffffffffff168173ffffffffffffffffffffffffffffffffffffffff161415151561122957600080fd5b806000806101000a81548173ffffffffffffffffffffffffffffffffffffffff021916908373ffffffffffffffffffffffffffffffffffffffff16021790555050565b6000809054906101000a900473ffffffffffffffffffffffffffffffffffffffff1673ffffffffffffffffffffffffffffffffffffffff163373ffffffffffffffffffffffffffffffffffffffff161415156112c757600080fd5b600073ffffffffffffffffffffffffffffffffffffffff168173ffffffffffffffffffffffffffffffffffffffff161415151561130357600080fd5b80600260006101000a81548173ffffffffffffffffffffffffffffffffffffffff021916908373ffffffffffffffffffffffffffffffffffffffff16021790555050565b6000809054906101000a900473ffffffffffffffffffffffffffffffffffffffff1673ffffffffffffffffffffffffffffffffffffffff163373ffffffffffffffffffffffffffffffffffffffff161415156113a257600080fd5b600260149054906101000a900460ff1615156113bd57600080fd5b600073ffffffffffffffffffffffffffffffffffffffff16600960009054906101000a900473ffffffffffffffffffffffffffffffffffffffff1673ffffffffffffffffffffffffffffffffffffffff1614151561141a57600080fd5b611422612c3f565b565b6000809054906101000a900473ffffffffffffffffffffffffffffffffffffffff1673ffffffffffffffffffffffffffffffffffffffff163373ffffffffffffffffffffffffffffffffffffffff1614151561147f57600080fd5b600073ffffffffffffffffffffffffffffffffffffffff168173ffffffffffffffffffffffffffffffffffffffff16141515156114bb57600080fd5b80600160006101000a81548173ffffffffffffffffffffffffffffffffffffffff021916908373ffffffffffffffffffffffffffffffffffffffff16021790555050565b600080600080600260149054906101000a900460ff1615151561152157600080fd5b600860008773ffffffffffffffffffffffffffffffffffffffff1673ffffffffffffffffffffffffffffffffffffffff16815260200190815260200160002060000160009054906101000a900460ff1615806115dc5750600860008773ffffffffffffffffffffffffffffffffffffffff1673ffffffffffffffffffffffffffffffffffffffff16815260200190815260200160002060030160009054906101000a900467ffffffffffffffff1667ffffffffffffffff1642115b15156115e757600080fd5b84925084831415156115f857600080fd5b611600612cd2565b1561160e576000935061163b565b61163885600560109054906101000a900467ffffffffffffffff1667ffffffffffffffff16612d4b565b93505b8591508173ffffffffffffffffffffffffffffffffffffffff1663e63697c88633876040518463ffffffff167c0100000000000000000000000000000000000000000000000000000000028152600401808481526020018373ffffffffffffffffffffffffffffffffffffffff1673ffffffffffffffffffffffffffffffffffffffff1681526020018281526020019350505050600060405180830381600087803b15156116e857600080fd5b6102c65a03f115156116f957600080fd5b505050600660009054906101000a900463ffffffff1663ffffffff164201905060a0604051908101604052806001151581526020013373ffffffffffffffffffffffffffffffffffffffff1681526020018481526020018581526020018267ffffffffffffffff16815250600860008873ffffffffffffffffffffffffffffffffffffffff1673ffffffffffffffffffffffffffffffffffffffff16815260200190815260200160002060008201518160000160006101000a81548160ff02191690831515021790555060208201518160000160016101000a81548173ffffffffffffffffffffffffffffffffffffffff021916908373ffffffffffffffffffffffffffffffffffffffff160217905550604082015181600101556060820151816002015560808201518160030160006101000a81548167ffffffffffffffff021916908367ffffffffffffffff1602179055509050507f56ca301a9219608c91e7bcee90e083c19671d2cdcc96752c7af291cee5f9c8c88382604051808381526020018267ffffffffffffffff1681526020019250505060405180910390a1505050505050565b600260149054906101000a900460ff1681565b600160009054906101000a900473ffffffffffffffffffffffffffffffffffffffff1673ffffffffffffffffffffffffffffffffffffffff163373ffffffffffffffffffffffffffffffffffffffff1614151561191057600080fd5b60003073ffffffffffffffffffffffffffffffffffffffff163111156119aa57600160009054906101000a900473ffffffffffffffffffffffffffffffffffffffff1673ffffffffffffffffffffffffffffffffffffffff166108fc3073ffffffffffffffffffffffffffffffffffffffff16319081150290604051600060405180830381858888f1935050505015156119a957600080fd5b5b565b60008082604051808273ffffffffffffffffffffffffffffffffffffffff1673ffffffffffffffffffffffffffffffffffffffff166c01000000000000000000000000028152601401915050604051809103902084604051808273ffffffffffffffffffffffffffffffffffffffff1673ffffffffffffffffffffffffffffffffffffffff166c01000000000000000000000000028152601401915050604051809103902018905060076000826fffffffffffffffffffffffffffffffff19166fffffffffffffffffffffffffffffffff1916815260200190815260200160002060009054906101000a900473ffffffffffffffffffffffffffffffffffffffff1691505092915050565b6000806000600260149054906101000a900460ff16151515611ad857600080fd5b611ae0612cd2565b15611aee5760009250611af4565b60045492505b8473ffffffffffffffffffffffffffffffffffffffff163373ffffffffffffffffffffffffffffffffffffffff16148015611b5b57508373ffffffffffffffffffffffffffffffffffffffff168573ffffffffffffffffffffffffffffffffffffffff1614155b8015611b945750600073ffffffffffffffffffffffffffffffffffffffff168573ffffffffffffffffffffffffffffffffffffffff1614155b8015611bcd5750600073ffffffffffffffffffffffffffffffffffffffff168473ffffffffffffffffffffffffffffffffffffffff1614155b8015611bd95750823410155b1515611be457600080fd5b611bec612cd2565b80611bf957506004543410155b1515611c0457600080fd5b83604051808273ffffffffffffffffffffffffffffffffffffffff1673ffffffffffffffffffffffffffffffffffffffff166c01000000000000000000000000028152601401915050604051809103902085604051808273ffffffffffffffffffffffffffffffffffffffff1673ffffffffffffffffffffffffffffffffffffffff166c010000000000000000000000000281526014019150506040518091039020189150600060076000846fffffffffffffffffffffffffffffffff19166fffffffffffffffffffffffffffffffff1916815260200190815260200160002060009054906101000a900473ffffffffffffffffffffffffffffffffffffffff1673ffffffffffffffffffffffffffffffffffffffff16141515611d2757600080fd5b86868686600660049054906101000a900467ffffffffffffffff16611d4a612d61565b80866000191660001916815260200185600019166000191681526020018473ffffffffffffffffffffffffffffffffffffffff1673ffffffffffffffffffffffffffffffffffffffff1681526020018373ffffffffffffffffffffffffffffffffffffffff1673ffffffffffffffffffffffffffffffffffffffff1681526020018267ffffffffffffffff1667ffffffffffffffff16815260200195505050505050604051809103906000f0801515611e0257600080fd5b90508060076000846fffffffffffffffffffffffffffffffff19166fffffffffffffffffffffffffffffffff1916815260200190815260200160002060006101000a81548173ffffffffffffffffffffffffffffffffffffffff021916908373ffffffffffffffffffffffffffffffffffffffff1602179055507fafe69bb01058f08148fc5424a131b506461f6a3f5566c3fe3d44a819e05d5b278787838888600660049054906101000a900467ffffffffffffffff1660405180876000191660001916815260200186600019166000191681526020018573ffffffffffffffffffffffffffffffffffffffff1673ffffffffffffffffffffffffffffffffffffffff1681526020018473ffffffffffffffffffffffffffffffffffffffff1673ffffffffffffffffffffffffffffffffffffffff1681526020018373ffffffffffffffffffffffffffffffffffffffff1673ffffffffffffffffffffffffffffffffffffffff1681526020018267ffffffffffffffff1667ffffffffffffffff168152602001965050505050505060405180910390a182341115611fe4578073ffffffffffffffffffffffffffffffffffffffff166108fc8434039081150290604051600060405180830381858888f193505050501515611fe357600080fd5b5b6006600481819054906101000a900467ffffffffffffffff168092919060010191906101000a81548167ffffffffffffffff021916908367ffffffffffffffff1602179055505050505050505050565b600960009054906101000a900473ffffffffffffffffffffffffffffffffffffffff1681565b600080600260149054906101000a900460ff1615151561207957600080fd5b612081612cd2565b15612142578273ffffffffffffffffffffffffffffffffffffffff1663bafa090d3360006040518363ffffffff167c0100000000000000000000000000000000000000000000000000000000028152600401808373ffffffffffffffffffffffffffffffffffffffff1673ffffffffffffffffffffffffffffffffffffffff16815260200182815260200192505050600060405180830381600087803b151561212957600080fd5b6102c65a03f1151561213a57600080fd5b50505061223f565b8273ffffffffffffffffffffffffffffffffffffffff1631915061218682600560189054906101000a900467ffffffffffffffff1667ffffffffffffffff16612d4b565b90508273ffffffffffffffffffffffffffffffffffffffff1663bafa090d33836040518363ffffffff167c0100000000000000000000000000000000000000000000000000000000028152600401808373ffffffffffffffffffffffffffffffffffffffff1673ffffffffffffffffffffffffffffffffffffffff16815260200182815260200192505050600060405180830381600087803b151561222a57600080fd5b6102c65a03f1151561223b57600080fd5b5050505b7f48ff30ff636f7e2227f236a4bef6e99149ff7861d09c04dd4dec0d6e79824e94426040518082815260200191505060405180910390a1505050565b6000809054906101000a900473ffffffffffffffffffffffffffffffffffffffff1673ffffffffffffffffffffffffffffffffffffffff163373ffffffffffffffffffffffffffffffffffffffff161415156122d657600080fd5b600260149054906101000a900460ff1615156122f157600080fd5b80600960006101000a81548173ffffffffffffffffffffffffffffffffffffffff021916908373ffffffffffffffffffffffffffffffffffffffff1602179055507f450db8da6efbe9c22f2347f7c2021231df1fc58d3ae9a2fa75d39fa44619930581604051808273ffffffffffffffffffffffffffffffffffffffff1673ffffffffffffffffffffffffffffffffffffffff16815260200191505060405180910390a150565b6000809054906101000a900473ffffffffffffffffffffffffffffffffffffffff1673ffffffffffffffffffffffffffffffffffffffff163373ffffffffffffffffffffffffffffffffffffffff161415156123f357600080fd5b80600660006101000a81548163ffffffff021916908363ffffffff16021790555050565b60076020528060005260406000206000915054906101000a900473ffffffffffffffffffffffffffffffffffffffff1681565b600260009054906101000a900473ffffffffffffffffffffffffffffffffffffffff1673ffffffffffffffffffffffffffffffffffffffff163373ffffffffffffffffffffffffffffffffffffffff1614806124f257506000809054906101000a900473ffffffffffffffffffffffffffffffffffffffff1673ffffffffffffffffffffffffffffffffffffffff163373ffffffffffffffffffffffffffffffffffffffff16145b8061254a5750600160009054906101000a900473ffffffffffffffffffffffffffffffffffffffff1673ffffffffffffffffffffffffffffffffffffffff163373ffffffffffffffffffffffffffffffffffffffff16145b151561255557600080fd5b600260149054906101000a900460ff1615151561257157600080fd5b6001600260146101000a81548160ff021916908315150217905550565b6000600260149054906101000a900460ff161515156125ac57600080fd5b60035434101515156125bd57600080fd5b81905060028160ff161180156125d7575060128160ff1611155b15156125e257600080fd5b8373ffffffffffffffffffffffffffffffffffffffff16637944b4b93385846040518463ffffffff167c0100000000000000000000000000000000000000000000000000000000028152600401808473ffffffffffffffffffffffffffffffffffffffff1673ffffffffffffffffffffffffffffffffffffffff1681526020018367ffffffffffffffff1667ffffffffffffffff1681526020018260ff1660ff1681526020019350505050600060405180830381600087803b15156126a657600080fd5b6102c65a03f115156126b757600080fd5b5050507fa1d10d11962fde629b3e48b2373c01adeafdc6a8faf64f0e6bb7e1c340e804978382604051808381526020018260ff1681526020019250505060405180910390a150505050565b600660009054906101000a900463ffffffff1681565b6000809054906101000a900473ffffffffffffffffffffffffffffffffffffffff1673ffffffffffffffffffffffffffffffffffffffff163373ffffffffffffffffffffffffffffffffffffffff1614151561277357600080fd5b6064841015151561278357600080fd5b6032831015151561279357600080fd5b83600560106101000a81548167ffffffffffffffff021916908367ffffffffffffffff16021790555082600560186101000a81548167ffffffffffffffff021916908367ffffffffffffffff160217905550816003819055508060048190555050505050565b600260009054906101000a900473ffffffffffffffffffffffffffffffffffffffff1681565b600080600080600260009054906101000a900473ffffffffffffffffffffffffffffffffffffffff1673ffffffffffffffffffffffffffffffffffffffff163373ffffffffffffffffffffffffffffffffffffffff1614806128cd57506000809054906101000a900473ffffffffffffffffffffffffffffffffffffffff1673ffffffffffffffffffffffffffffffffffffffff163373ffffffffffffffffffffffffffffffffffffffff16145b806129255750600160009054906101000a900473ffffffffffffffffffffffffffffffffffffffff1673ffffffffffffffffffffffffffffffffffffffff163373ffffffffffffffffffffffffffffffffffffffff16145b151561293057600080fd5b600560109054906101000a900467ffffffffffffffff169350600560189054906101000a900467ffffffffffffffff1692506003549150600454905090919293565b565b600660049054906101000a900467ffffffffffffffff1681565b600260009054906101000a900473ffffffffffffffffffffffffffffffffffffffff1673ffffffffffffffffffffffffffffffffffffffff163373ffffffffffffffffffffffffffffffffffffffff161415156129ea57600080fd5b818110158015612a0357504267ffffffffffffffff1682115b1515612a0e57600080fd5b81600560006101000a81548167ffffffffffffffff021916908367ffffffffffffffff16021790555080600560086101000a81548167ffffffffffffffff021916908367ffffffffffffffff1602179055505050565b60086020528060005260406000206000915090508060000160009054906101000a900460ff16908060000160019054906101000a900473ffffffffffffffffffffffffffffffffffffffff16908060010154908060020154908060030160009054906101000a900467ffffffffffffffff16905085565b600260149054906101000a900460ff161515612af657600080fd5b6000809054906101000a900473ffffffffffffffffffffffffffffffffffffffff1673ffffffffffffffffffffffffffffffffffffffff163373ffffffffffffffffffffffffffffffffffffffff16141515612b5157600080fd5b600073ffffffffffffffffffffffffffffffffffffffff168173ffffffffffffffffffffffffffffffffffffffff1614151515612b8d57600080fd5b8173ffffffffffffffffffffffffffffffffffffffff16638a010c22826040518263ffffffff167c0100000000000000000000000000000000000000000000000000000000028152600401808273ffffffffffffffffffffffffffffffffffffffff1673ffffffffffffffffffffffffffffffffffffffff168152602001915050600060405180830381600087803b1515612c2757600080fd5b6102c65a03f11515612c3857600080fd5b5050505050565b6000809054906101000a900473ffffffffffffffffffffffffffffffffffffffff1673ffffffffffffffffffffffffffffffffffffffff163373ffffffffffffffffffffffffffffffffffffffff16141515612c9a57600080fd5b600260149054906101000a900460ff161515612cb557600080fd5b6000600260146101000a81548160ff021916908315150217905550565b6000600560009054906101000a900467ffffffffffffffff1667ffffffffffffffff164267ffffffffffffffff161080612d355750600560089054906101000a900467ffffffffffffffff1667ffffffffffffffff164267ffffffffffffffff16115b15612d435760009050612d48565b600190505b90565b60008183811515612d5857fe5b04905092915050565b60405161197280612d728339019056006060604052426008806101000a81548167ffffffffffffffff021916908367ffffffffffffffff1602179055506000600860106101000a81548167ffffffffffffffff021916908367ffffffffffffffff1602179055506000600860186101000a81548167ffffffffffffffff021916908367ffffffffffffffff1602179055506001600960006101000a81548160ff0219169083601281111561009f57fe5b021790555034156100af57600080fd5b60405160a080611972833981016040528080519060200190919080519060200190919080519060200190919080519060200190919080519060200190919050508460008160001916905550836001816000191690555082600260006101000a81548173ffffffffffffffffffffffffffffffffffffffff021916908373ffffffffffffffffffffffffffffffffffffffff16021790555081600360006101000a81548173ffffffffffffffffffffffffffffffffffffffff021916908373ffffffffffffffffffffffffffffffffffffffff16021790555080600860006101000a81548167ffffffffffffffff021916908367ffffffffffffffff16021790555033600460006101000a81548173ffffffffffffffffffffffffffffffffffffffff021916908373ffffffffffffffffffffffffffffffffffffffff160217905550505050505061176d806102056000396000f3006060604052600436106100f1576000357c0100000000000000000000000000000000000000000000000000000000900463ffffffff168063200d2ed21461019757806335d7d09a146101ce578063371644331461020b57806347c8efa7146102425780634b67f6af1461027357806352709725146102a457806373688914146102f9578063771c288b1461034e57806378ed91561461038b5780637944b4b9146104695780638419c986146104c15780638a010c22146104fe578063986b567614610537578063bafa090d14610574578063e63697c8146105ab578063e9b18084146105f6578063f95a78fd14610643575b6000600960009054906101000a900460ff16601281111561010e57fe5b1415151561011b57600080fd5b60003411151561012a57600080fd5b7fe1fffcc4923d04b559f4d29a8bfc6cda04eb5b0d3c460751c2402c5c5cc9109c3334604051808373ffffffffffffffffffffffffffffffffffffffff1673ffffffffffffffffffffffffffffffffffffffff1681526020018281526020019250505060405180910390a1005b34156101a257600080fd5b6101aa6106ad565b604051808260128111156101ba57fe5b60ff16815260200191505060405180910390f35b34156101d957600080fd5b6101e16106c0565b604051808267ffffffffffffffff1667ffffffffffffffff16815260200191505060405180910390f35b610240600480803590602001909190803573ffffffffffffffffffffffffffffffffffffffff169060200190919050506106da565b005b341561024d57600080fd5b610255610a5f565b60405180826000191660001916815260200191505060405180910390f35b341561027e57600080fd5b610286610a65565b60405180826000191660001916815260200191505060405180910390f35b34156102af57600080fd5b6102b7610a6b565b604051808273ffffffffffffffffffffffffffffffffffffffff1673ffffffffffffffffffffffffffffffffffffffff16815260200191505060405180910390f35b341561030457600080fd5b61030c610a91565b604051808273ffffffffffffffffffffffffffffffffffffffff1673ffffffffffffffffffffffffffffffffffffffff16815260200191505060405180910390f35b341561035957600080fd5b610361610ab7565b604051808267ffffffffffffffff1667ffffffffffffffff16815260200191505060405180910390f35b341561039657600080fd5b6103b6600480803567ffffffffffffffff16906020019091905050610ad1565b604051808367ffffffffffffffff1667ffffffffffffffff168152602001806020018281038252838181546001816001161561010002031660029004815260200191508054600181600116156101000203166002900480156104595780601f1061042e57610100808354040283529160200191610459565b820191906000526020600020905b81548152906001019060200180831161043c57829003601f168201915b5050935050505060405180910390f35b341561047457600080fd5b6104bf600480803573ffffffffffffffffffffffffffffffffffffffff1690602001909190803567ffffffffffffffff1690602001909190803560ff16906020019091905050610b08565b005b34156104cc57600080fd5b6104d4610d60565b604051808267ffffffffffffffff1667ffffffffffffffff16815260200191505060405180910390f35b341561050957600080fd5b610535600480803573ffffffffffffffffffffffffffffffffffffffff16906020019091905050610d79565b005b341561054257600080fd5b61054a610e55565b604051808267ffffffffffffffff1667ffffffffffffffff16815260200191505060405180910390f35b6105a9600480803573ffffffffffffffffffffffffffffffffffffffff16906020019091908035906020019091905050610e6f565b005b34156105b657600080fd5b6105f4600480803590602001909190803573ffffffffffffffffffffffffffffffffffffffff16906020019091908035906020019091905050611218565b005b341561060157600080fd5b610641600480803573ffffffffffffffffffffffffffffffffffffffff1690602001909190803590602001908201803590602001919091929050506113f2565b005b341561064e57600080fd5b61066e600480803567ffffffffffffffff16906020019091905050611657565b604051808367ffffffffffffffff1667ffffffffffffffff16815260200182601281111561069857fe5b60ff1681526020019250505060405180910390f35b600960009054906101000a900460ff1681565b600860109054906101000a900467ffffffffffffffff1681565b6000600960009054906101000a900460ff1660128111156106f757fe5b1415151561070457600080fd5b80600260009054906101000a900473ffffffffffffffffffffffffffffffffffffffff1673ffffffffffffffffffffffffffffffffffffffff168173ffffffffffffffffffffffffffffffffffffffff1614806107ae5750600360009054906101000a900473ffffffffffffffffffffffffffffffffffffffff1673ffffffffffffffffffffffffffffffffffffffff168173ffffffffffffffffffffffffffffffffffffffff16145b15156107b957600080fd5b600460009054906101000a900473ffffffffffffffffffffffffffffffffffffffff1673ffffffffffffffffffffffffffffffffffffffff163373ffffffffffffffffffffffffffffffffffffffff1614151561081557600080fd5b6002600960009054906101000a900460ff16601281111561083257fe5b14151561083e57600080fd5b6006548314151561084e57600080fd5b600560009054906101000a900473ffffffffffffffffffffffffffffffffffffffff1673ffffffffffffffffffffffffffffffffffffffff168273ffffffffffffffffffffffffffffffffffffffff16141515156108ab57600080fd5b6006543073ffffffffffffffffffffffffffffffffffffffff1631101515156108d357600080fd5b600060075414151561097c57600460009054906101000a900473ffffffffffffffffffffffffffffffffffffffff1673ffffffffffffffffffffffffffffffffffffffff1663e18b7fcf6007546040518263ffffffff167c01000000000000000000000000000000000000000000000000000000000281526004016000604051808303818588803b151561096657600080fd5b6125ee5a03f1151561097757600080fd5b505050505b600560009054906101000a900473ffffffffffffffffffffffffffffffffffffffff1673ffffffffffffffffffffffffffffffffffffffff166108fc600754600654039081150290604051600060405180830381858888f1935050505015156109e457600080fd5b6001600960006101000a81548160ff02191690836012811115610a0357fe5b02179055506000600560006101000a81548173ffffffffffffffffffffffffffffffffffffffff021916908373ffffffffffffffffffffffffffffffffffffffff16021790555060006006819055506000600781905550505050565b60005481565b60015481565b600360009054906101000a900473ffffffffffffffffffffffffffffffffffffffff1681565b600260009054906101000a900473ffffffffffffffffffffffffffffffffffffffff1681565b600860189054906101000a900467ffffffffffffffff1681565b600b6020528060005260406000206000915090508060000160009054906101000a900467ffffffffffffffff169080600101905082565b6000600960009054906101000a900460ff166012811115610b2557fe5b14151515610b3257600080fd5b82600260009054906101000a900473ffffffffffffffffffffffffffffffffffffffff1673ffffffffffffffffffffffffffffffffffffffff168173ffffffffffffffffffffffffffffffffffffffff161480610bdc5750600360009054906101000a900473ffffffffffffffffffffffffffffffffffffffff1673ffffffffffffffffffffffffffffffffffffffff168173ffffffffffffffffffffffffffffffffffffffff16145b1515610be757600080fd5b600460009054906101000a900473ffffffffffffffffffffffffffffffffffffffff1673ffffffffffffffffffffffffffffffffffffffff163373ffffffffffffffffffffffffffffffffffffffff16141515610c4357600080fd5b60408051908101604052808467ffffffffffffffff1681526020018360ff166012811115610c6d57fe5b6012811115610c7857fe5b815250600a6000600860189054906101000a900467ffffffffffffffff1667ffffffffffffffff1667ffffffffffffffff16815260200190815260200160002060008201518160000160006101000a81548167ffffffffffffffff021916908367ffffffffffffffff16021790555060208201518160000160086101000a81548160ff02191690836012811115610d0b57fe5b02179055509050506008601881819054906101000a900467ffffffffffffffff168092919060010191906101000a81548167ffffffffffffffff021916908367ffffffffffffffff1602179055505050505050565b6008809054906101000a900467ffffffffffffffff1681565b600460009054906101000a900473ffffffffffffffffffffffffffffffffffffffff1673ffffffffffffffffffffffffffffffffffffffff163373ffffffffffffffffffffffffffffffffffffffff16141515610dd557600080fd5b600073ffffffffffffffffffffffffffffffffffffffff168173ffffffffffffffffffffffffffffffffffffffff1614151515610e1157600080fd5b80600460006101000a81548173ffffffffffffffffffffffffffffffffffffffff021916908373ffffffffffffffffffffffffffffffffffffffff16021790555050565b600860009054906101000a900467ffffffffffffffff1681565b6000600960009054906101000a900460ff166012811115610e8c57fe5b14151515610e9957600080fd5b81600260009054906101000a900473ffffffffffffffffffffffffffffffffffffffff1673ffffffffffffffffffffffffffffffffffffffff168173ffffffffffffffffffffffffffffffffffffffff161480610f435750600360009054906101000a900473ffffffffffffffffffffffffffffffffffffffff1673ffffffffffffffffffffffffffffffffffffffff168173ffffffffffffffffffffffffffffffffffffffff16145b1515610f4e57600080fd5b600460009054906101000a900473ffffffffffffffffffffffffffffffffffffffff1673ffffffffffffffffffffffffffffffffffffffff163373ffffffffffffffffffffffffffffffffffffffff16141515610faa57600080fd5b60008214151561104f57600460009054906101000a900473ffffffffffffffffffffffffffffffffffffffff1673ffffffffffffffffffffffffffffffffffffffff1663e18b7fcf836040518263ffffffff167c01000000000000000000000000000000000000000000000000000000000281526004016000604051808303818588803b151561103957600080fd5b6125ee5a03f1151561104a57600080fd5b505050505b600260009054906101000a900473ffffffffffffffffffffffffffffffffffffffff1673ffffffffffffffffffffffffffffffffffffffff168373ffffffffffffffffffffffffffffffffffffffff16141561111f57600360009054906101000a900473ffffffffffffffffffffffffffffffffffffffff1673ffffffffffffffffffffffffffffffffffffffff166108fc3073ffffffffffffffffffffffffffffffffffffffff16319081150290604051600060405180830381858888f19350505050151561111e57600080fd5b5b600360009054906101000a900473ffffffffffffffffffffffffffffffffffffffff1673ffffffffffffffffffffffffffffffffffffffff168373ffffffffffffffffffffffffffffffffffffffff1614156111ef57600260009054906101000a900473ffffffffffffffffffffffffffffffffffffffff1673ffffffffffffffffffffffffffffffffffffffff166108fc3073ffffffffffffffffffffffffffffffffffffffff16319081150290604051600060405180830381858888f1935050505015156111ee57600080fd5b5b6000600960006101000a81548160ff0219169083601281111561120e57fe5b0217905550505050565b6000600960009054906101000a900460ff16601281111561123557fe5b1415151561124257600080fd5b81600260009054906101000a900473ffffffffffffffffffffffffffffffffffffffff1673ffffffffffffffffffffffffffffffffffffffff168173ffffffffffffffffffffffffffffffffffffffff1614806112ec5750600360009054906101000a900473ffffffffffffffffffffffffffffffffffffffff1673ffffffffffffffffffffffffffffffffffffffff168173ffffffffffffffffffffffffffffffffffffffff16145b15156112f757600080fd5b600460009054906101000a900473ffffffffffffffffffffffffffffffffffffffff1673ffffffffffffffffffffffffffffffffffffffff163373ffffffffffffffffffffffffffffffffffffffff1614151561135357600080fd5b833073ffffffffffffffffffffffffffffffffffffffff16311015151561137957600080fd5b6002600960006101000a81548160ff0219169083601281111561139857fe5b02179055508360068190555082600560006101000a81548173ffffffffffffffffffffffffffffffffffffffff021916908373ffffffffffffffffffffffffffffffffffffffff1602179055508160078190555050505050565b6000600960009054906101000a900460ff16601281111561140f57fe5b1415151561141c57600080fd5b82600260009054906101000a900473ffffffffffffffffffffffffffffffffffffffff1673ffffffffffffffffffffffffffffffffffffffff168173ffffffffffffffffffffffffffffffffffffffff1614806114c65750600360009054906101000a900473ffffffffffffffffffffffffffffffffffffffff1673ffffffffffffffffffffffffffffffffffffffff168173ffffffffffffffffffffffffffffffffffffffff16145b15156114d157600080fd5b600460009054906101000a900473ffffffffffffffffffffffffffffffffffffffff1673ffffffffffffffffffffffffffffffffffffffff163373ffffffffffffffffffffffffffffffffffffffff1614151561152d57600080fd5b60408051908101604052804267ffffffffffffffff16815260200184848080601f016020809104026020016040519081016040528093929190818152602001838380828437820191505050505050815250600b6000600860109054906101000a900467ffffffffffffffff1667ffffffffffffffff1667ffffffffffffffff16815260200190815260200160002060008201518160000160006101000a81548167ffffffffffffffff021916908367ffffffffffffffff160217905550602082015181600101908051906020019061160692919061169c565b509050506008601081819054906101000a900467ffffffffffffffff168092919060010191906101000a81548167ffffffffffffffff021916908367ffffffffffffffff1602179055505050505050565b600a6020528060005260406000206000915090508060000160009054906101000a900467ffffffffffffffff16908060000160089054906101000a900460ff16905082565b828054600181600116156101000203166002900490600052602060002090601f016020900481019282601f106116dd57805160ff191683800117855561170b565b8280016001018555821561170b579182015b8281111561170a5782518255916020019190600101906116ef565b5b509050611718919061171c565b5090565b61173e91905b8082111561173a576000816000905550600101611722565b5090565b905600a165627a7a7230582041bd7ac91cd54edd8de87b559f4f345403f338b651423151c7b25c89346799fb0029a165627a7a7230582084a24c7ec846e816c946bcd194e4bba7a23fc52ca650f78347077828950328bd0029",
  "source": "pragma solidity ^0.4.17;\n\n/// @title Manages special access privileges of BankCore.\n/*** LoveBankAccessControl Contract adapted from CryptoKitty ***/\ncontract LoveBankAccessControl {\n\n    // This facet controls access control for LoveBank. There are four roles managed here:\n    //\n    //     - The CEO: The CEO can reassign other roles and change the addresses of our dependent smart\n    //         contracts. It is also the only role that can unpause the smart contract. It is initially\n    //         set to the address that created the smart contract in the BankCore constructor.\n    //\n    //     - The CFO: The CFO can withdraw funds from BankCore contract.\n    //\n    //     - The COO: The COO can set Free-Fee-Time.\n    //\n    // It should be noted that these roles are distinct without overlap in their access abilities, the\n    // abilities listed for each role above are exhaustive. In particular, while the CEO can assign any\n    // address to any role, the CEO address itself doesn't have the ability to act in those roles. This\n    // restriction is intentional so that we aren't tempted to use the CEO address frequently out of\n    // convenience. The less we use an address, the less likely it is that we somehow compromise the\n    // account.\n\n    /// @dev Emited when contract is upgraded\n    event ContractUpgrade(address newVerseContract);\n\n    // The addresses of the accounts (or contracts) that can execute actions within each roles.\n    address public ceoAddress;\n    address public cfoAddress;\n    address public cooAddress;\n\n    // @dev Keeps track whether the contract is paused. When that is true, most actions are blocked\n    bool public paused=false;\n\n    /// @dev Access modifier for CEO-only functionality\n    modifier onlyCEO() {\n        require(msg.sender == ceoAddress);\n        _;\n    }\n\n    /// @dev Access modifier for CFO-only functionality\n    modifier onlyCFO() {\n        require(msg.sender == cfoAddress);\n        _;\n    }\n\n    /// @dev Access modifier for COO-only functionality\n    modifier onlyCOO() {\n        require(msg.sender == cooAddress);\n        _;\n    }\n\n    modifier onlyCLevel() {\n        require(\n            msg.sender == cooAddress ||\n            msg.sender == ceoAddress ||\n            msg.sender == cfoAddress\n        );\n        _;\n    }\n    \n    /// @dev Assigns a new address to act as the CEO. Only available to the current CEO.\n    /// @param _newCEO is the address of the new CEO\n    function setCEO(address _newCEO) external onlyCEO {\n        require(_newCEO != address(0));\n        ceoAddress = _newCEO;\n    }\n\n    /// @dev Assigns a new address to act as the CFO. Only available to the current CEO.\n    /// @param _newCFO is the address of the new CFO\n    function setCFO(address _newCFO) external onlyCEO {\n        require(_newCFO != address(0));\n        cfoAddress = _newCFO;\n    }\n\n    /// @dev Assigns a new address to act as the COO. Only available to the current CEO.\n    /// @param _newCOO is the address of the new COO\n    function setCOO(address _newCOO) external onlyCEO {\n        require(_newCOO != address(0));\n        cooAddress = _newCOO;\n    }\n    \n    /*** Pausable functionality adapted from OpenZeppelin ***/\n\n    /// @dev Modifier to allow actions only when the contract IS NOT paused\n    modifier whenNotPaused() {\n        require(!paused);\n        _;\n    }\n\n    /// @dev Modifier to allow actions only when the contract IS paused\n    modifier whenPaused() {\n        require(paused);\n        _;\n    }\n\n    /// @dev Called by any \"C-level\" role to pause the contract. Used only when\n    ///  a bug or exploit is detected and we need to limit damage.\n    function pause() external onlyCLevel whenNotPaused {\n        paused = true;\n    }\n\n    /// @dev Unpauses the smart contract. Can only be called by the CEO, since\n    ///  one reason we may pause the contract is when CFO or COO accounts are\n    ///  compromised.\n    /// @notice This is public rather than external so it can be called by\n    ///  derived contracts.\n    function unpause() public onlyCEO whenPaused {\n        // can't unpause if contract was upgraded\n        paused = false;\n    }\n}\n\n/// @title Love Account Base Contract for LoveBank. Holds all common structs, events and base \n///  variables for love accounts.\n/// @author Diana Kudrow <https://github.com/lovebankcrypto>\n/// @dev Create new account by couple ,deposit or bless by all, withdraw with both sides' confirmation\n\ncontract LoveAccountBase{\n\n    // An individual new contrat is build whenever a new couple create a new love account through the \n    // BankCore Contract. The love account contract plays seceral roles:\n    //\n    //     - Information Storage: owners names, wallet addresses, love-ID, their milestones in \n    //        relationship, diary\n    //\n    //     - Balance Storage: each account keep their deposit in seperate contrat for safety and \n    //        privilege concern\n    //\n    //     - Access Control: only receive message from one of owners, triggered by bank for safety \n    //        reason\n    //     \n    //     - Deposit/Bless(fallback), Withdraw, BreakUp, MileStone, Diary: 5 main function of our \n    //        love bank\n\n    /*** EVENTS ***/\n    \n    /// @dev The Deposit event is fired whenever a value>0 ether is transfered into loveaccount\n    event Deposit(address _from, uint _value);\n    \n    /*** DATA TYPES ***/\n    /// @dev choices of all account status and milestones\n    enum Status{BreakUp, Active, RequestPending, FirstMet,  //0-3\n        FirstKiss, FirstConfess, InRelationship,FirstDate, //4-7\n        Proposal, Engage, WeddingDay, Anniversary, Trip,  //8-12\n        NewFamilyMember, FirstSex, Birthday,             //13-15\n        special1, special2, special3                  // 16-18\n    }\n\n    struct StonePage {\n    \tuint64 logtime;\n    \tStatus contant;\n    }\n\n    struct DiaryPage {\n    \tuint64 logtime;\n    \tbytes contant;\n    }\n\n    /*** STORAGE ***/\n    \n    /// @dev Nicename of the FOUNDER of this love account\n    bytes32 public name1;\n\n    /// @dev Nicename of the FOUNDER's lover\n    bytes32 public name2;\n\n    /// @dev Address of the FOUNDER of this love account\n    address public owner1;\n\n    /// @dev Address of the FOUNDER's lover\n    address public owner2;\n\n    /// @dev contract address of Love Bank, for access control\n    address BANKACCOUNT;\n\n    /// @dev Keep track of who is withdrawing money during double-sig pending time\n    address withdrawer;\n\n    /// @dev Keep track of how much is withdrawing money during double-sig pending time\n    uint256 request_amount;\n\n    /// @dev Keep track of service charge during double-sig pending time\n    uint256 request_fee;\n\n    /// @dev One and unique LoveID of this account, smaller if sign up early\n    uint64 public loveID;\n\n    /// @dev Time stamp of found moment\n    uint64 public foundTime=uint64(now);\n\n    /// @dev diary index log, public\n    uint64 public next_diary_id=0;\n\n    /// @dev milestone index log, public\n    uint64 public next_stone_id=0;\n\n    /// @dev Status of the account: BreakUp, Active(defult), RequestPending\n    Status public status=Status.Active;\n    \n    /// @dev A mapping from timestamp to Status. Keep track of all Memory Moment for lovers\n    mapping (uint64=>StonePage) public milestone;\n\n    /// @dev A mapping from timestamp to bytes. Lovers can keep whatever words on ethereum eternally\n    mapping (uint64=>DiaryPage) public diary;\n\n    /// @dev Initiate love account when first found\n    function LoveAccountBase (\n        bytes32 _name1,\n        bytes32 _name2,\n        address _address1,\n        address _address2,\n        uint64 _loveID) public {\n            name1 = _name1;\n            name2 = _name2;\n            owner1 = _address1;\n            owner2 = _address2;\n            loveID = _loveID;\n            BANKACCOUNT = msg.sender;\n    }\n    /// @dev Modifier to allow actions only when the account is not Breakup\n    modifier notBreakup() {require(uint(status)!=0);_;}\n\n    /// @dev Modifier to allow actions only when the call was sent by one of owners\n    modifier oneOfOwners(address _address) {\n        require (_address==owner1 || _address==owner2);_;\n    }\n\n    /// @dev Modifier to allow actions only when message sender is Bank\n    modifier callByBank() {require(msg.sender == BANKACCOUNT);_;}\n    \n    /// @dev Rarely used! Only happen when extreme circumstances\n    function changeBankAccount(address newBank) external callByBank{\n        require(newBank!=address(0));\n        BANKACCOUNT = newBank;\n    }\n\n    /// @dev THINK TWICE! If you breakup with your lover, all your balance will transfer to your\n    ///  lover's account, AND you cannot re-activate this very account! Think about your sweet\n    ///  moments before you hurt someone's heart!!\n    function breakup(\n        address _breaker, uint256 _fee) external payable \n        notBreakup oneOfOwners(_breaker) callByBank{\n        if(_fee!=0){BankCore(BANKACCOUNT).receiveFee.value(_fee)();}\n        if(_breaker==owner1) {owner2.transfer(this.balance);}\n        if(_breaker==owner2) {owner1.transfer(this.balance);}\n        status=Status.BreakUp;\n    }\n    \n    /// @dev Log withdraw info when first receice request \n    function withdraw(uint256 amount, \n        address _to, uint256 _fee) external notBreakup oneOfOwners(_to) callByBank{\n        require(this.balance>=amount);\n        // change status to pending\n        status =Status.RequestPending;\n        request_amount = amount;\n        withdrawer = _to;\n        request_fee = _fee;\n    }\n\n    /// @dev Confirm request and send money; erase info logs\n    function withdrawConfirm(\n        uint256 _amount, \n        address _confirmer) external payable notBreakup oneOfOwners(_confirmer) callByBank{\n        // check for matching withdraw request\n        require(uint(status)==2);\n        require(_amount==request_amount);\n        require(_confirmer!=withdrawer);\n        require(this.balance>=request_amount);\n        \n        // send service fee to bank\n        if(request_fee!=0){BankCore(BANKACCOUNT).receiveFee.value(request_fee)();}\n        withdrawer.transfer(request_amount-request_fee);\n\n        // clean pending log informations\n        status=Status.Active;\n        withdrawer=address(0);\n        request_amount=0;\n        request_fee=0;\n    }\n    \n    /// @dev Log big events(pre-set-choice) in relationship, time stamp is required\n    function mileStone(address _sender, uint64 _time, uint8 _choice) external notBreakup oneOfOwners(_sender) callByBank {\n        milestone[next_stone_id]=StonePage({\n        \tlogtime: _time,\n        \tcontant: Status(_choice)\n        });\n        next_stone_id++;\n    }\n\n    /// @dev Log diary, time stamp is now\n    function Diary(address _sender, bytes _diary) external notBreakup oneOfOwners(_sender) callByBank {\n        diary[next_diary_id]=DiaryPage({\n        \tlogtime: uint64(now),\n        \tcontant: _diary\n        });\n        next_diary_id++;  \n    }\n    \n    // @dev Fallback function for deposit and blessing income\n    function() external payable notBreakup {\n        require(msg.value>0);\n        Deposit(msg.sender, msg.value);\n    }\n}\n\n\n/// @title Basic contract of LoveBank that defines the Creating, Saving, and Using of love \n/// accounts under the protect of one Bank contract.\n/// @author Diana Kudrow <https://github.com/lovebankcrypto>\ncontract Bank is LoveBankAccessControl{\n\n    /*** EVENTS ***/\n\n    /// @dev Create event is fired whenever a new love account is created, and a new contract\n    ///  address is created \n    event Create(bytes32 _name1, bytes32 _name2, address _conadd, \n                address _address1, address _address2, uint64 _loveID);\n    /// @dev Breakup event is fired when someone breakup with another\n    event Breakup(uint _time);\n    /// @dev StoneLog event returns when love account log a milestone\n    event StoneLog(uint _time, uint _choice);\n    /// @dev DiaryLog event returns when love account log a diary\n    event DiaryLog(uint _time, bytes _contant);\n    /// @dev Withdraw event returns when a user trigger a withdrow demand\n    event Withdraw(uint _amount, uint _endTime);\n    /// @dev WithdrawConfirm event returns when a withdraw demand is confirmed and accomplished\n    event WithdrawConfirm(uint _amount, uint _confirmTime);\n\n    /*** DATA TYPES ***/\n    \n    struct pending {\n        bool pending;\n        address withdrawer;\n        uint256 amount;\n        uint256 fee;\n        uint64 endTime;\n    }\n\n    /*** CONSTANTS ***/\n\n    /// @dev constant variables\n    uint256 STONE_FEE=4000000000000000;\n    uint256 OPEN_FEE=20000000000000000;\n    uint64 FREE_START=0;\n    uint64 FREE_END=0;\n    uint64 WD_FEE_VERSE=100;  // 1% service fee\n    uint64 BU_FEE_VERSE=50;   // 2% service fee\n    uint32 public CONFIRM_LIMIT = 900; //15mins\n\n    /*** STORAGE ***/\n\n    /// @dev The ID of the next signing couple, also the number of current signed accounts\n    uint64 public next_id=0; \n    /// @dev A mapping from owers addresses' sha256 to love account address\n    mapping (bytes16 => address)  public sig_to_add;\n    /// @dev A mapping from love account address to withdraw demand detail\n    mapping (address => pending) public pendingList;\n    \n    /// @dev Create a new love account and log in Bank\n    /// @param name1 is nicename of the FOUNDER of this love account\n    /// @param name2 is nicename of the FOUNDER's lover\n    /// @param address1 is address of the FOUNDER of this love account, need to be msg.sender\n    /// @param address2 is address of the FOUNDER's lover\n    function createAccount(\n        bytes32 name1,\n        bytes32 name2,\n        address address1,\n        address address2) external payable whenNotPaused {\n        uint fee;\n        // calculate open account service fee\n        if (_ifFree()){fee=0;} else{fee=OPEN_FEE;}\n        require(msg.sender==address1   &&\n                address1!=address2     && \n                address1!=address(0)   &&\n                address2!=address(0)   &&\n                msg.value>=fee);\n        require(_ifFree() || msg.value >= OPEN_FEE);\n        // Same couple can only created love account once. Addresses' keccak256 is logged\n        bytes16 sig = bytes16(keccak256(address1))^bytes16(keccak256(address2));\n        require(sig_to_add[sig]==0);\n        // New contract created\n        address newContract = (new LoveAccountBase)(name1, name2, address1, address2, next_id);\n        sig_to_add[sig]=newContract;\n        Create(name1, name2, newContract, address1, address2, next_id);\n        // First deposit\n        if(msg.value>fee){\n            newContract.transfer(msg.value-fee);\n        }\n        next_id++;\n    }\n    \n    /// @dev Calculate service fee; to avoid ufixed data type, dev=(1/charge rate)\n    /// @param _dev is inverse of charging rate. If service fee is 1%, _dev=100\n    function _calculate(uint256 _amount, uint _dev) internal pure returns(uint256 _int){\n        _int = _amount/uint256(_dev);\n    }\n\n    /// @dev If now is during service-free promotion, return true; else return false\n    function _ifFree() view internal returns(bool) {\n        if(uint64(now)<FREE_START || uint64(now)>FREE_END\n            ) {return false;\n        } else {return true;}\n    }\n\n    /// @dev THINK TWICE! If you breakup with your lover, all your balance will transfer \n    ///  to your lover's account, AND you cannot re-activate this very account! Think about \n    ///  your sweet moments before you hurt someone's heart!!\n    /// @param _conadd is contract address of love account\n    function sendBreakup(address _conadd) external whenNotPaused {\n        if (_ifFree()){\n            // Call function in love account contract\n            LoveAccountBase(_conadd).breakup(msg.sender,0);}\n        else{\n            uint _balance = _conadd.balance;\n            uint _fee = _calculate(_balance, BU_FEE_VERSE);\n            // Call function in love account contract\n            LoveAccountBase(_conadd).breakup(msg.sender,_fee);}\n        Breakup(now);\n     }\n\n    /// @dev Log big events(pre-set-choice) in relationship, time stamp is required\n    /// @param _conadd is contract address of love account\n    /// @param _time is time stamp of the time of event\n    /// @param _choice is uint of enum. See Love Account Base to understand how milestone work\n    function sendMileStone(\n        address _conadd, uint _time, \n        uint _choice) external payable whenNotPaused {\n        require(msg.value >= STONE_FEE);\n        uint8 _choice8 = uint8(_choice);\n        require(_choice8>2 && _choice8<=18);\n        // Call function in love account contract\n        LoveAccountBase(_conadd).mileStone(msg.sender, uint64(_time), _choice8);\n        StoneLog(_time, _choice8);\n    }\n    \n    /// @dev Log diary, time stamp is now\n    /// @param _conadd is contract address of love account\n    function sendDiary(address _conadd, bytes _diary) external whenNotPaused{\n        LoveAccountBase(_conadd).Diary(msg.sender, _diary);\n        DiaryLog(now, _diary);\n    }\n    \n    /// @dev Log withdraw info when first receice request\n    /// @param _conadd is contract address of love account\n    /// @param _amount is the amount of money to withdraw in unit wei\n    function bankWithdraw(address _conadd, uint _amount) external whenNotPaused{\n        // Make sure no valid withdraw is pending\n        require(!pendingList[_conadd].pending || now>pendingList[_conadd].endTime);\n        uint256 _fee;\n        uint256 _amount256 = uint256(_amount); \n        require(_amount256==_amount);\n\n        // Fee calculation\n        if (_ifFree()){_fee=0;}else{_fee=_calculate(_amount, WD_FEE_VERSE);}\n\n        // Call function in love account contract\n        LoveAccountBase _conA = LoveAccountBase(_conadd);\n        _conA.withdraw(_amount, msg.sender, _fee);\n\n        // Log detail info for latter check\n        uint64 _end = uint64(now)+CONFIRM_LIMIT;\n        pendingList[_conadd] = pending({\n                    pending:true,\n                    withdrawer:msg.sender,\n                    amount: _amount256,\n                    fee:_fee,\n                    endTime: _end});\n        Withdraw(_amount256, _end);\n    }\n\n    /// @dev Confirm request and send money; erase info logs\n    /// @param _conadd is contract address of love account \n    /// @param _amount is the amount of money to withdraw in unit wei\n    function bankConfirm(address _conadd, uint _amount) external whenNotPaused{\n        // Confirm matching request\n        uint256 _amount256 = uint256(_amount); \n        require(_amount256==_amount);\n        require(pendingList[_conadd].pending && now<pendingList[_conadd].endTime);\n        require(pendingList[_conadd].withdrawer != msg.sender);\n        require(pendingList[_conadd].amount == _amount);\n\n        // Call function in love account contract\n        LoveAccountBase(_conadd).withdrawConfirm(_amount, msg.sender);\n\n        // Clean pending information\n        delete pendingList[_conadd];\n        WithdrawConfirm(_amount, now);\n    }\n}\n\n/// @title Promotion contract of LoveBank. \n/// @author Diana Kudrow <https://github.com/lovebankcrypto>\n/// @dev All CLevel OPs, for promotion. CFO can define free-of-charge time, and CEO can lower the \n///  service fee. (Yeah, we won't raise charge for sure, it's in the contrat!) \ncontract LovePromo is Bank{\n\n    /// @dev Withdraw your money for FREEEEEE! Or too if you wanna break up\n    /// @param _start is time stamp of free start time\n    /// @param _end is time stamp of free end time\n    function setFreeTime(uint _start, uint _end) external onlyCOO {\n        require(_end>=_start && _start>uint64(now));\n        FREE_START = uint64(_start);\n        FREE_END = uint64(_end);\n    }\n\n\n    /// @dev Set new charging rate\n    /// @param _withdrawFee is inverse of charging rate to avoid ufixed data type. \n    ///  _withdrawFee=(1/x). If withdraw fee is 1%, _withdrawFee=100\n    /// @param _breakupFee is inverse of charging rate to avoid ufixed data type. \n    ///  _breakupFee=(1/x). If breakup fee is 2%, _breakupFee=50\n    /// @param _stone is Milestone logging fee, wei (diary is free of charge, cost only gas)\n    /// @param _open is Open account fee, wei\n\n    function setFee(\n        uint _withdrawFee, \n        uint _breakupFee, \n        uint _stone, \n        uint _open) external onlyCEO {\n\n        /// Service fee of withdraw NO HIGHER THAN 1%\n        require(_withdrawFee>=100);\n        /// Service fee of breakup NO HIGHER THAN 2%\n        require(_breakupFee>=50);\n\n        WD_FEE_VERSE = uint64(_withdrawFee);\n        BU_FEE_VERSE = uint64(_breakupFee);\n        STONE_FEE = _stone;\n        OPEN_FEE = _open;\n    }\n\n    /// @dev CEO might extend the confirm time limit when Etherum Network is blocked\n    /// @param _newlimit uses second as a unit\n    function setConfirm(uint _newlimit) external onlyCEO {\n        CONFIRM_LIMIT = uint32(_newlimit);\n    }\n\n    /// @dev Just for checking\n    function getFreeTime() external view onlyCLevel returns(uint64 _start, uint64 _end){\n        _start = uint64(FREE_START);\n        _end = uint64(FREE_END);\n    }\n    \n    /// @dev Just for checking\n    function getFee() external view onlyCLevel returns(\n        uint64 _withdrawFee, \n        uint64 _breakupFee, \n        uint _stone, \n        uint _open){\n\n        _withdrawFee = WD_FEE_VERSE;\n        _breakupFee = BU_FEE_VERSE;\n        _stone = STONE_FEE;\n        _open = OPEN_FEE;\n    }\n}\n\n/// @title Love Bank, a safe place for lovers to save money money for future and get bless from\n///  strangers and keep eternally on Etherum blockchain\n/// @author Diana Kudrow <https://github.com/lovebankcrypto>\n/// @dev The main LoveBank contract, keep track of all love accounts and their contracts, double\n///  security check before any operations\ncontract BankCore is LovePromo {\n\n    // This is the main LoveBank contract. The function of our DApp is quite straight forward:\n    //  to create a account for couple, which is displayed on our website. Owers can put money in \n    //  as well as strangers. Withdraw request can only be done with both owners permission.\n    //  In honor of eternal love, the party who puts forward a breakup will transfer all the remain\n    //  balance to the other party by default.\n    // \n    //  To make the contract more logical, we simple seperate our contract in following parts:\n    //\n    //      - LoveBankAccessControl: This contract manages the various addresses and constraints for \n    //             operations that can be executed only by specific roles. Namely CEO, CFO and COO.\n    //\n    //      - Bank is LoveBankAccessControl: In this contract we define the main stucture of our \n    //              Love Bank and the methord to create accounts. Also, all the operations of users are\n    //              defined here, like money withdraw, breakup, diary, milestones. Lots of modifiers\n    //              are used to protect user's safety.\n    //\n    //      - LovePromo is Bank: Here are some simple operations for COO to set free-charge time and for CEO\n    //              to lower the charge rate.\n    //\n    //      - BankCore is LovePromo: inherit all previous contract. Contains all the big moves, like: \n    //              creating a bank, set defult C-Level users, unpause, update (only when hugh bug happens),\n    //              withdraw money, etc.\n    //\n    //      - LoveAccountBase: This contract is the contract of a love account. Holds all common structs,\n    //              events and base variables for love accounts.\n\n\n    // Set in case the core contract is broken and an upgrade is required\n    address public newContractAddress;\n\n    /// @dev DepositBank is fired when ether is received from CLevel to BankCore Contract\n    event DepositBank(address _sender, uint _value);\n\n    function BankCore() public {\n        // Starts paused.\n        paused = true;\n        // the creator of the contract is the initial CEO\n        ceoAddress = msg.sender;\n        // the creator of the contract is also the initial COO\n        cooAddress = msg.sender;\n        // the creator of the contract is also the initial COO\n        cfoAddress = msg.sender;\n    }\n\n    /// @dev Used to mark the smart contract as upgraded, in case there is a serious\n    ///  breaking bug. This method does nothing but keep track of the new contract and\n    ///  emit a message indicating that the new address is set. It's up to clients of this\n    ///  contract to update to the new contract address in that case. (This contract will\n    ///  be paused indefinitely if such an upgrade takes place.)\n    /// @param _v2Address new address\n    /*** setNewAddress adapted from CryptoKitty ***/\n    function setNewAddress(address _v2Address) external onlyCEO whenPaused {\n        newContractAddress = _v2Address;\n        ContractUpgrade(_v2Address);\n    }\n\n    /// @dev Override unpause so it requires all external contract addresses\n    ///  to be set before contract can be unpaused. Also, we can't have\n    ///  newContractAddress set either, because then the contract was upgraded.\n    function unpause() public onlyCEO whenPaused {\n        require(newContractAddress == address(0));\n        // Actually unpause the contract.\n        super.unpause();\n    }\n    \n    /// @dev Rarely used! Only happen when extreme circumstances\n    /// @param _conadd is contract address of love account\n    /// @param newBank is newBank contract addess if updated\n    function changeBank(address _conadd, address newBank) external whenPaused onlyCEO{\n        require(newBank != address(0));\n        LoveAccountBase(_conadd).changeBankAccount(newBank);\n    }\n\n    /// @dev Allows the CFO to capture the balance of Bank contract\n    function withdrawBalance() external onlyCFO {\n        // Subtract all the currently pregnant kittens we have, plus 1 of margin.\n        if (this.balance > 0) {\n            cfoAddress.transfer(this.balance);\n        }\n    }\n    \n    /// @dev Get Love account contrat address through Bank contract index\n    function getContract(address _add1, address _add2) external view returns(address){\n        bytes16 _sig = bytes16(keccak256(_add1))^bytes16(keccak256(_add2));\n        return sig_to_add[_sig];\n    }\n    \n    /// @dev Receive service fee from sub contracts\n    function receiveFee() external payable{}\n    \n    /// @dev Reject all deposit from outside CLevel accounts\n    function() external payable onlyCLevel {\n        require(msg.value>0);\n        DepositBank(msg.sender, msg.value);\n    }\n}",
  "sourcePath": "/opt/love_bank/tf_love/contracts/lovebank.sol",
  "compiler": {
    "name": "solc",
    "version": "0.4.18+commit.9cf6e910.Emscripten.clang"
  },
  "schemaVersion": "1.0.1",
  "updatedAt": "2018-01-04T06:04:37.337Z"
}